{
  "contractName": "Random",
  "abi": [
    {
      "constant": true,
      "inputs": [],
      "name": "balance",
      "outputs": [
        {
          "internalType": "uint256",
          "name": "",
          "type": "uint256"
        }
      ],
      "payable": false,
      "stateMutability": "view",
      "type": "function"
    },
    {
      "constant": true,
      "inputs": [],
      "name": "owner",
      "outputs": [
        {
          "internalType": "address",
          "name": "",
          "type": "address"
        }
      ],
      "payable": false,
      "stateMutability": "view",
      "type": "function"
    },
    {
      "constant": true,
      "inputs": [
        {
          "internalType": "bytes",
          "name": "n",
          "type": "bytes"
        }
      ],
      "name": "random",
      "outputs": [
        {
          "internalType": "uint256",
          "name": "",
          "type": "uint256"
        }
      ],
      "payable": false,
      "stateMutability": "view",
      "type": "function"
    },
    {
      "constant": false,
      "inputs": [],
      "name": "receiveMoney",
      "outputs": [],
      "payable": true,
      "stateMutability": "payable",
      "type": "function"
    },
    {
      "constant": false,
      "inputs": [
        {
          "internalType": "address payable",
          "name": "customerAddress",
          "type": "address"
        },
        {
          "internalType": "uint256",
          "name": "transferAmount",
          "type": "uint256"
        }
      ],
      "name": "sendMoney",
      "outputs": [
        {
          "internalType": "uint256",
          "name": "",
          "type": "uint256"
        }
      ],
      "payable": false,
      "stateMutability": "nonpayable",
      "type": "function"
    },
    {
      "constant": true,
      "inputs": [],
      "name": "getBalance",
      "outputs": [
        {
          "internalType": "uint256",
          "name": "",
          "type": "uint256"
        }
      ],
      "payable": false,
      "stateMutability": "view",
      "type": "function"
    }
  ],
  "bytecode": "0x60806040526000600155336000806101000a81548173ffffffffffffffffffffffffffffffffffffffff021916908373ffffffffffffffffffffffffffffffffffffffff160217905550610414806100586000396000f3fe6080604052600436106100555760003560e01c806312065fe01461005a578063414bdd34146100855780636d26ec18146101615780638da5cb5b1461016b578063b69ef8a8146101c2578063ee4ae2c9146101ed575b600080fd5b34801561006657600080fd5b5061006f61025c565b6040518082815260200191505060405180910390f35b34801561009157600080fd5b5061014b600480360360208110156100a857600080fd5b81019080803590602001906401000000008111156100c557600080fd5b8201836020820111156100d757600080fd5b803590602001918460018302840111640100000000831117156100f957600080fd5b91908080601f016020809104026020016040519081016040528093929190818152602001838380828437600081840152601f19601f820116905080830192505050505050509192919290505050610266565b6040518082815260200191505060405180910390f35b6101696102dd565b005b34801561017757600080fd5b506101806102ef565b604051808273ffffffffffffffffffffffffffffffffffffffff1673ffffffffffffffffffffffffffffffffffffffff16815260200191505060405180910390f35b3480156101ce57600080fd5b506101d7610314565b6040518082815260200191505060405180910390f35b3480156101f957600080fd5b506102466004803603604081101561021057600080fd5b81019080803573ffffffffffffffffffffffffffffffffffffffff1690602001909291908035906020019092919050505061031a565b6040518082815260200191505060405180910390f35b6000600154905090565b60008060009054906101000a900473ffffffffffffffffffffffffffffffffffffffff1673ffffffffffffffffffffffffffffffffffffffff163373ffffffffffffffffffffffffffffffffffffffff16146102c157600080fd5b600a828051906020012060001c816102d557fe5b069050919050565b34600160008282540192505081905550565b6000809054906101000a900473ffffffffffffffffffffffffffffffffffffffff1681565b60015481565b60008060009054906101000a900473ffffffffffffffffffffffffffffffffffffffff1673ffffffffffffffffffffffffffffffffffffffff163373ffffffffffffffffffffffffffffffffffffffff161461037557600080fd5b64e8d4a5100082029150816001600082825403925050819055508273ffffffffffffffffffffffffffffffffffffffff166108fc839081150290604051600060405180830381858888f193505050501580156103d5573d6000803e3d6000fd5b508190509291505056fea265627a7a72315820048ab0db4074b8a905daa914f18a603be1832b9fad990699c4b77eb96cdb66e864736f6c634300050c0032",
  "source": "import \"./Ownable.sol\";\r\n\r\npragma solidity 0.5.12;\r\n\r\ncontract Random is Ownable{\r\n\r\n  uint public balance = 0;\r\n\r\n  function random(bytes memory n) public view onlyOwner returns(uint){\r\n    return uint256(keccak256(n)) % 10;\r\n  }\r\n\r\n  function receiveMoney() public payable{\r\n    balance += msg.value;\r\n  }\r\n\r\n  function sendMoney(address payable customerAddress, uint transferAmount) public onlyOwner returns(uint){\r\n      transferAmount = transferAmount*1000000000000;\r\n      balance -= transferAmount;\r\n      customerAddress.transfer(transferAmount);\r\n      return(transferAmount);\r\n  }\r\n\r\n  function getBalance() public view returns(uint){\r\n    return balance;\r\n  }\r\n\r\n}\r\n",
  "sourcePath": "C:\\Users\\fblum\\documents\\projectrandom\\contracts\\Random.sol",
  "compiler": {
    "name": "solc",
    "version": "0.5.12+commit.7709ece9.Emscripten.clang"
  },
  "schemaVersion": "3.2.0",
  "updatedAt": "2020-07-11T17:23:10.812Z",
  "networkType": "ethereum",
  "devdoc": {
    "methods": {}
  },
  "userdoc": {
    "methods": {}
  }
}